:020000040000FA
:04000000CDEF7FF0D1
:10FF7600300ED36E000E9B6E1200D4EC7FF0C2EFF3
:10FF86007FF000EF00F0000EBA6E000EBB6E000EA2
:10FF9600BC6E1200026A016A000EF86E0001C0EF24
:10FFA6007FF0E8EC7FF0BBEC7FF0C6EC7FF0DDEC99
:10FFB6007FF01200000EC16E000EC06E000EC36E02
:10FFC600000EC46E010EC26E1200000E8D6E000E83
:10FFD6008C6E000E896E000E8A6E000E8B6E070EFA
:10FFE600966E92689368000E946E95687E681F0EF2
:0AFFF6007F6E000E7C6EF18E12008B
:020000040020DA
:08000000FFFFFFFFFFFFFFFF00
:020000040030CA
:0E000000FF021F1EFF8B85FF0FC00FE00F4099
:00000001FF
